:020000040800F2
:10000000D8140020D9000008C11F0008391D0008BD
:1000100000000000000000000000000000000000E0
:10002000000000000000000000000000AD220008F9
:1000300000000000000000000D200008112700084B
:10004000EB000008EB000008EB000008EB000008E4
:10005000EB000008EB000008EB000008EB000008D4
:1000600000000000EB000008EB0000085905000844
:10007000EB000008EB00000800000000EB000008A7
:1000800000000000EB00000800000000000000007D
:10009000EB00000800000000EB000008EB00000887
:1000A000EB000008EB000008EB000008EB00000884
:1000B000F52C0008EB000008000000000000000024
:1000C0000448854600F032FA00480047093B000822
:1000D000C046C046D8140020044880470448004762
:1000E000FEE7FEE7FEE7FEE7FEE7FEE7152800086D
:1000F000C100000830B50B46014600202022012433
:1001000009E00D46D5409D4205D31D469540491B4B
:100110002546954040191546521E002DF1DC30BD94
:10012000F0B51FB40646002082B005464024019178
:1001300000901BE0019922460F46304600F044F93A
:10014000049A059B801A994110D3104619462246FD
:1001500000F02AF9361A8F4101972246012000212A
:10016000009F00F021F938184D4100902046641E90
:100170000028DFDC019B00982946324607B0F0BD1D
:10018000D2B201E00270401C491EFBD2704700222F
:10019000F6E710B513460A4604461946FFF7F0FF86
:1001A000204610BD30B505462A460B4610781C780F
:1001B000521C5B1C002801D0A042F7D0002C03D0B9
:1001C000002802D06D1CEFE7284630BD70B502460E
:1001D0004A40D50F40004A00ED0740085208002869
:1001E00014D0002A12D0C40DD30D41020120C00545
:1001F0005202490A520AE41A091812187D3491422F
:1002000001D3641C00E04900002C01DA002070BD1D
:100210000023914201D3891A034340084900002872
:10022000F7D100290AD0914202D10121C90705E086
:10023000914201D2012101E00121C943E005C0182A
:10024000401900F0D2F870BDF0B50C465C4085B0A6
:10025000E40FE40703944C00002664085900944618
:10026000490802460296224321D062460A431ED024
:100270006200570D4A000E032303550D0124024668
:100280002C492405781B1B0B360B401823432643AF
:10029000614600901C46501AB44103D30098401C9C
:1002A000009002E0921800985B41002803DA0020D9
:1002B000014605B0F0BD002001210905074686462C
:1002C00011E064461D46141BB54106D36546521B1A
:1002D000B341744607430C43A646CD07400849087E
:1002E000284392185B4105460D43EAD11046184356
:1002F00013D06046194650407140084306D060460E
:10030000101AB34106D20122002306E00022012385
:10031000DB0702E00122D243531000987446010526
:10032000381C6141029C039D0019694100F09EF850
:10033000BFE70000FD030000C217C10F504010B519
:100340004018CA079623002100F057F810BD00009E
:100350000EB505490291002100910A460B46019114
:1003600000F091F803B000BD330400004A00090317
:100370000123090B1B051943094B10B5520D9A4275
:1003800001DA002010BD064B34339A4203DC9A1A7E
:1003900000F01AF810BD03495118884010BD000044
:1003A000FF030000CDFBFFFF10B5202A04DB014650
:1003B000203A9140002010BD914020239C1A034612
:1003C000E3401943904010BD10B5202A04DB0846D5
:1003D000203AD040002110BD0B46D340D04020240D
:1003E000A21A91400843194610BD002904DA401CA6
:1003F000490001D140084000704770B40024050C4A
:1004000005D11024000402D1002921D01124050EA9
:1004100001D100020834050F01D10001241D850F10
:1004200001D18000A41C002801DB4000641C0029CD
:1004300008D020252E1B0D46F540A14000D00121FB
:100440002943084301061B1B000ADB1D02D50020BF
:1004500070BC7047DB05181880180029F8DA401CBA
:100460004900F5D170BC40084000704710B5002B22
:1004700008DA0024401C614192185B411A4301D103
:100480004008400010BDF0B51FB482B005460C0016
:1004900003D0084602F05CFC02E002F059FC203078
:1004A0000246009021462846FFF77EFF049B059AEE
:1004B00004460F4618431143084314D0184610430E
:1004C0001BD0009840210A1A18460599FFF77CFFB7
:1004D00005460E46009A05990498FFF765FF084304
:1004E00005D0012004E02046394607B0F0BD0020C9
:1004F000C11705430E432C43374300990E986305FB
:10050000401A7905E40A00220C43FD0A0A3002D59C
:1005100000200146E9E70105101969410C9C0D9D79
:1005200000196941FFF7A2FFDFE70000064C012533
:10053000064E05E0E36807CC2B430C3C984710348B
:10054000B442F7D3FFF7C0FDC8460008E8460008EC
:1005500010B501F0BBFE10BD10B5024800F04CF91B
:1005600010BD00003C03002030B5446C1C252C401D
:100570000125A540046C6560046863608368102BE6
:10058000036803D099600068C26030BD9A6000685B
:10059000C16030BD0348006801681022114301604A
:1005A00070470000BC02002070B5114C01221021E0
:1005B000204600F060FB7D20C00000F0EDF9002235
:1005C0001021204600F057FB7D252D01284600F024
:1005D000E3F901221021204600F04DFB284600F0EF
:1005E000DBF9284600F0D8F9284600F0D5F970BDAF
:1005F0000004005010B50D4C2068C169C943C906FC
:1006000013D410210162204601F03FF9E06E00682A
:1006100040683221091A06483222418001210170C6
:1006200001460831204601F0C1FA10BDBC0200208D
:10063000AC0300207047000010B5084900224A6151
:1006400007494B684C1523434B604B6808242343F0
:100650004B60C009C001026010BD0000840300208F
:100660000020024010B5214A00219069C3052048AE
:1006700004D54169022319434161911593699B0592
:1006800005D54369012423434361630219439369F8
:100690005B0505D54369082423434361E3011943FE
:1006A00093691B0505D54369042423434361630211
:1006B000194393699B0405D543691024234343617F
:1006C0006302194393699B0304D5446920231C43A7
:1006D000446119439369DB0305D5436940242343EF
:1006E0004361A0020143916110BD0000002002405F
:1006F0008403002070B5054600F0C4FA0646184C85
:100700000AE0681C08D0002D04D000F0BBFA801B62
:10071000A84201D9032070BDA069C007F1D1A0692A
:10072000800701D50220A061A069C00511D4A0698D
:1007300080050ED4A06940050BD4A069000508D43B
:10074000A069800405D4A069800302D4A069C00315
:1007500003D5FFF787FF012070BD002070BD0000AA
:100760000020024030B5014620314A790023022A98
:1007700004D00422C2630B71012030BD02681468EA
:100780000E25AC43146002681468640864001460A9
:10079000446C1C22144001221546006CA5404560A3
:1007A0004A7118460B7130BD70B5002401462031E6
:1007B0004A79022A03D00421C163012418E00268A7
:1007C00013680E25AB431360026813685B085B0077
:1007D0001360436C1C221340012215469D40036C9C
:1007E0005D604A7100220A71816B002900D0884740
:1007F000204670BDC06B7047F0B4016C0D68016895
:100800000C68466C1C2304221E401746B7402F423A
:100810000ED067070CD50C68A40602D40C6894436C
:100820000C60416C19408A40016C4A60016B1AE00F
:100830000227B74002462F402032002F17D0A707CB
:1008400015D50C68A40605D40C680A25AC430C60C9
:1008500001215171446C02211C40036CA14059607C
:1008600000211171C16A002918D0F0BC084708277F
:10087000B7402F4212D0240710D50C680E25AC4388
:100880000C60446C01211C400B46A340046C636067
:10089000C163517100211171416BE4E7F0BC7047F5
:1008A00070B504003CD01F48256814212818FFF7B4
:1008B00021FC800060641C48206402212046203016
:1008C0000246417129681948E3680140A0686669D9
:1008D0001843236933431843A3691843E369184352
:1008E000236A1843084328600121A06889038842CD
:1008F00010D00D488030836A656C1C210D400F2696
:10090000AE40B3438362656C63680D40816AAB405F
:100910000B4383620020E06301215171107170BDAF
:10092000012070BDF8FFFDBF000002400F80FFFFF7
:10093000F8B504468C46203001790025012909D0FC
:100940000126067141790027012905D0077102258A
:100950002846F8BD0220F8BD02214171E7632068F6
:10096000016849084900016061462046FFF7FCFD27
:10097000206B00282068016801D00E2205E00422C7
:1009800091430160206801680A22114301602068D8
:10099000016831430160DBE770B5044600F072F98D
:1009A0000546601C00D0641C00F06CF9401BA0429E
:1009B000FAD370BDF8B51A4E0546307C0F460128B3
:1009C00007D0012030741748FFF794FE010002D0D1
:1009D00021E00220F8BD0020C04338606C6814E0BC
:1009E0002046FFF729FE0F48FFF784FE01460E4818
:1009F000426808239A434260426843159A43426022
:100A0000002901D03C6006E08034A8686A68C00113
:100A10008018A042E4D8002030740846F8BD0000D9
:100A20008403002050C300000020024001484069B8
:100A300070470000840300200548416802221143EA
:100A4000416041680122114341600020704700006D
:100A500000200240F8B50C4C1646207C0F460128B9
:100A600008D0012020740948FFF744FE0025002823
:100A700002D006E00220F8BD65613E600348FFF742
:100A800039FE2574F8BD00008403002050C3000027
:100A900011484168C9070BD0EFF3108172B60F4AB5
:100AA000C2600F4AC26081F310884168C9070ED145
:100AB000416889070DD5EFF3108172B6094A0261CA
:100AC000094A026181F310884068800701D501203E
:100AD000704700207047000000200240EFCDAB8936
:100AE00005040302BFAE9D8C16151413F8B5002340
:100AF0000124A2E027469F403A4070D04D68022D65
:100B000001D0122D14D1DD08AD002D1800952D6AED
:100B10005E07AC46F50E0F26AE46AE406546B543C1
:100B2000AC460E697546AE4065462E43009D2E626A
:100B30004D68012D05D0022D03D0112D01D0122DAD
:100B400016D185680326AC465D00AE46AE406546CC
:100B5000B543AC46CE687546AE4065462E438660CA
:100B600046680D79BE43ED06ED0F9D403543456067
:100B700006685F000325BD40AE46AE430D79B4461E
:100B8000AE07B60FBE4065462E430660C668754682
:100B9000AE438D68BD403543C5604D68ED004BD513
:100BA000294D6E6B26436E639E08284DB60075195D
:100BB000AC46AD689E07360F0F27B740BD430527EB
:100BC0003F07B84201D1002715E0214FB84201D1BB
:100BD000012710E01F4FB84202D102270BE02BE0A3
:100BE0001D4FB84201D1032705E01C4FB84201D187
:100BF000052700E00627B7402F436546AF60184D34
:100C00002E684F689643FF0300D516432E606E682A
:100C10004F689643BF0300D516436E60AE684F68B9
:100C20009643FF0200D51643AE60EE684F689643C8
:100C3000BF0200D51643EE605B1C0A681546DD4016
:100C400000D057E7F8BD000000100240000001404E
:100C50000004005000080050000C0050001C005020
:100C6000000401400069084000D00120704742693B
:100C70004A4042617047002A01D081617047816219
:100C800070470000014800687047000070000020B5
:100C900070B504000FD0216813480860216813481C
:100CA000086003CC41602068083C21688860FFF739
:100CB000E9FF054608E0012070BDFFF7E3FF401B98
:100CC000302801D9032070BD2068C0680028F4D105
:100CD00020680269E1688A4201D0016101E00449AB
:100CE0000160002070BD0000CCCC00005555000014
:100CF000AAAA0000006802490160002070470000B5
:100D0000AAAA000002480168491C0160704700005F
:100D10007000002010B508480024016840221143EB
:100D20000160204600F00AF8002801D0012401E00B
:100D300000F01CF8204610BD0020024070B50546AA
:100D400009487D210024C9000068FFF7D3F900F0AD
:100D500083FD002801D0012404E000222946501E12
:100D600000F01AF8204670BD740000200448416B62
:100D7000012211434163816B020411438163704777
:100D800000100240C106C90E0120884001490860D8
:100D90007047000000E100E010B501F015F910BD4A
:100DA000BFF34F8F04490348C860BFF34F8F00BFA4
:100DB000FDE700000400FA0500ED00E0F8B5044688
:100DC0000078544D800672D5524E0027403EB06BDD
:100DD000C00004D4B06BA9050843B06301274E4896
:100DE0000168C90511D40168821511430160FFF73C
:100DF00049FF009005E0FFF745FF0099401A64287D
:100E000037D845480068C005F5D532680321090583
:100E100060680A400140914208D08103890F03298C
:100E200004D13168890301D50120F8BD2A69032165
:100E300009040A4022D0084090421FD02078800642
:100E40001CD528692A6988430121C9040A432A61FB
:100E50002A698A432A612861C0050FD5FFF712FF6E
:100E6000009008E0FFF70EFF0099411A2B488142DD
:100E700001D90320F8BD28698005F3D5616888038E
:100E8000800F032805D132680005824301400A43E0
:100E90003260286903226168120411400843286106
:100EA000002F04D0B16B012000078143B16320788B
:100EB000C00705D0E868A168800880000843E860A2
:100EC0002078800705D5E8680C218843E16808434D
:100ED000E8602078400706D5E86803218902884346
:100EE00021690843E8602078000706D5E8680321F7
:100EF0000903884361690843E8602078000606D545
:100F0000E868032189048843A1690843E860002058
:100F1000F8BD00004010024000700040881300003F
:100F200070470000F8B50E4605007DD053480068B4
:100F3000C007C00FB0420AD25048016849084900B2
:100F4000314301600068C007C00FB04271D12878FA
:100F50004B4C800705D5E068F0218843A968084319
:100F6000E0602878C00752D06868022817D00328AC
:100F700018D02168012818D08905002959DAE168BC
:100F8000890889000143E160FFF77CFE6968074634
:100F9000022912D003291CD0012926D033E0216870
:100FA0008903EAE721688901E7E74907E5E7FFF7F1
:100FB00069FEC11B3348814223D8E0680007800FD7
:100FC0000228F4D123E0FFF75DFEC11B2D488142CA
:100FD00017D8E0680007800F0328F4D117E0FFF767
:100FE00051FEC11B274881420BD8E0680007800FE3
:100FF0000128F4D10BE0FFF745FEC11B21488142D7
:1010000001D90320F8BDE0680007800FF3D11B4829
:101010000168C907C90FB1420DD9016849084900E3
:1010200031430160006800E003E0C007C00FB04238
:1010300001D00120F8BD2878400706D5E0680721D7
:1010400009028843E9680843E0602878000707D56B
:10105000E0680721C90288432969C9000843E060A4
:1010600000F040F8E168084A0906090F515CC840E1
:10107000064908600020FFF761FEF8BD002002402D
:101080000010024088130000A446000874000020ED
:10109000034801680122D204114301607047000037
:1010A00000100240044805490068C968044A49051F
:1010B000490F515CC8407047740000200010024086
:1010C000BD460008044805490068C968044A890407
:1010D000490F515CC8407047740000200010024066
:1010E000BD46000810B5184AD1680C2008400428F5
:1010F0000BD0082810D00C2810D050680004410FE5
:101100000120C003491C884010BD1068C00601D5ED
:101110000E4810BD0E4810BD0E4810BD88020E4B83
:10112000000F185C0902D368890F491CDB0301D545
:10113000084A05E01268D20601D5044A00E0044AD4
:101140005043FEF7D7FF10BD0010024000093D00DC
:101150000024F40000127A00B446000810B5044CD4
:101160006069C00503D5FFF7DBFEA015A06110BDC7
:1011700000100240FEB505007ED0FE4CE7680C2052
:10118000E66807400120000406402878C00747D0E1
:10119000082F05D00C2F0AD101200004864206D169
:1011A000206880033CD568680028E5D038E001203D
:1011B00069680004814203D121680143216011E084
:1011C000052301221B0492049942216802D1114394
:1011D0002160F1E78143216021680140009120688E
:1011E00090432060686800280DD0FFF74BFD009009
:1011F00005E0FFF747FD0099401A64287AD8206877
:101200008003F6D50CE0FFF73DFD009005E0FFF709
:1012100039FD0099401A6428F0D820688003F6D47C
:101220002878800755D50923E868042F0DD00C2FA6
:1012300001D1002E09D000283BD0216899430143F9
:101240002160FFF71FFD064627E02168490701D509
:10125000002891D061681F22120291432A6912026C
:10126000114361602168994301432160FFF73AFF10
:10127000E16809060A0F00E079E1BF49895CC840CE
:10128000BE4908600020FFF759FD002872D120E018
:10129000FFF7F8FC801B0228B0D820684007F7D57C
:1012A00060681F21090288432969090208436060B8
:1012B0000FE02068400840002060FFF7E3FC06468E
:1012C00004E0FFF7DFFC801B022897D82068400766
:1012D000F7D42878C0065FD5002F0CD0A869002865
:1012E00049D02068FF21013108432060FFF7CAFC84
:1012F00006462DE0C0E02068800502D5A8690028D8
:10130000A7D06068072149038843296A08436060C1
:101310006068297F0002000A090608436060286AA5
:10132000410B0120C003491C8840E16809060A0FEF
:101330009149895CC840914908600020FFF7FEFC94
:10134000002817D128E0FFF79DFC801B0228A3D8B6
:1013500020688005F7D56068072149038843296A1A
:10136000084360606068297F0002000A090608439C
:10137000606011E0E1E02168FF20013081432160DD
:10138000FFF780FC064604E0FFF77CFC801B022888
:1013900072D820688005F7D42878794E000724D5C4
:1013A00068690028306910D0012108433061FFF7D7
:1013B00069FC009005E0FFF765FC0099401A0228DF
:1013C0005AD830698007F6D50FE0400840003061F8
:1013D000FFF758FC009005E0FFF754FC0099401A15
:1013E000022849D830698007F6D42878400765D5A7
:1013F00000200290A06BC00006D4A06B0121090759
:101400000843A063012002905E480168C90511D419
:101410000168821511430160FFF734FC009005E07C
:10142000FFF730FC0099401A642825D85548006819
:10143000C005F5D5FF20AA680130824203D1316989
:101440000143316111E001218902002A07D00523FF
:101450001B029A4203D132690A433261EFE73269D3
:1014600082433261306988433061A86800280FD018
:10147000FFF708FC009007E05EE0FFF703FC00992F
:10148000411A4148814257D830698005F5D50DE0B1
:10149000FFF7F8FB009006E0FFF7F4FB0099411A14
:1014A0003948814248D830698005F5D4029800282F
:1014B00004D0A06B012109078843A063686A002853
:1014C00064D00C2F3ED0012636060228206805D0B5
:1014D000B0432060FFF7D6FB05462FE0B043206005
:1014E000FFF7D0FB074604E0FFF7CCFBC01B022848
:1014F00022D820688001F7D4E96AA86AE268084324
:10150000296BFD231B049A4311430843E0602068C4
:1015100030432060FFF7B6FB054604E0FFF7B2FB5F
:10152000401B022808D820688001F7D52EE0FFF77D
:10153000A9FB401B022801D90320FEBD20688001C1
:10154000F5D423E00128F8D0E06801210904AA6A53
:10155000014091420BD10F218904EA6A0140914276
:1015600005D1032189050840296B88420ED001204E
:10157000FEBD000000100240A446000874000020D8
:101580004010024000700040881300000020EFE788
:1015900070B5040007D0002625464035A662687C59
:1015A000002802D005E0012070BD2E74204600F016
:1015B0002FF802206874206801684022914301607E
:1015C000A168606822690843E168114308436169C2
:1015D00001220843A169520211400843E16908430E
:1015E000216A0843A16A084321680860A0690421B0
:1015F000000C0840616A0843216848602068C1699E
:1016000092009143C161666501206874002070BD3D
:1016100010B586B0044614216846FEF7B8FD10499F
:101620002068884219D10F48416B821411434163ED
:10163000C16A01221143C162C06A002110400590B5
:10164000E020009002200190032003900291049179
:10165000052069460007FFF749FA06B010BD0000F3
:101660000030014000100240FFB5044683B0012065
:1016700001900020264640360090307C0C9F1D468D
:1016800001280FD001203074FFF7FCFA0290707C23
:10169000616801280DD0CA1FFD3A08D1A168002950
:1016A00005D102E0022007B0F0BD042801D00220DD
:1016B000C3E00498002828D00598002825D0002DE4
:1016C00023D0707C042801D0052070740020606550
:1016D0000599A163E587A58704992163E586A58619
:1016E0002064606420680168490603D401684022D0
:1016F000114301600121E068C9028842606848D155
:10170000002804D0012D02D03CE0012095E0206BA0
:1017100021680088C860206B801C2063E08E401E1A
:10172000E0862FE020688168890710D5E18E0029C6
:101730000DD0019901290AD1216B0988C160206B64
:10174000801C2063E08E401EE0860020019020680F
:101750008168C9070DD0E18F00290AD0C068A16B4C
:101760000880A06B801CA063E08F401EE0870120F2
:101770000190FFF787FA01460298081AB84201D390
:10178000781C59D1E08E0028CCD1E08F0028C9D137
:1017900046E0002801D0012D3CD1206B2168007863
:1017A0000873206B401C2063E08E401EE08631E011
:1017B00020688168890710D5E18E00290DD0019934
:1017C00001290AD1216B09780173206B401C206329
:1017D000E08E401EE0860020019020688168C907E5
:1017E0000DD0E18F00290AD0C068A16B0870A06BF2
:1017F000401CA063E08F401EE08701200190FFF7AE
:1018000041FA0299401AB84202D3781C02D013E080
:10181000002F11D0E08E0028CAD1E08F0028C7D158
:1018200039462046029A00F0F2FB002807D001203A
:1018300000902020606509E00320009006E0A06889
:10184000002803D12068C16880680190012070746D
:1018500000203074009826E7094910B5401E8842E0
:1018600001D9012010BD074C60610321081F00F061
:10187000ABFB0020A06107202061002010BD00000C
:10188000FFFFFF0000E000E0704770B5416F0446C5
:10189000856F0068826810261206002A14DA212952
:1018A00012D18168802291438160A06E002808D007
:1018B000FEF758FF002804D0A06EFEF79BFF2028FB
:1018C0001DD0204601F0C8F820688168490614D56B
:1018D000222D12D18168402291438160E06E002860
:1018E00008D0FEF73FFF002804D0E06EFEF782FF2D
:1018F000202804D0204601F09FF8002070BDE66744
:10190000032070BD70470000F8B502680446D06936
:101910001168936805072D0F5BD0DD07ED0FFF26DB
:1019200021360E402E4367D0C60706D0CE0504D51B
:1019300001261662E26F3243E2678707022204261D
:10194000002F06DADF0704D027683A62E76F3743D3
:10195000E767470706D5DB0704D023681E62E36FFD
:101960001343E367020709D520220A402A4305D022
:10197000236808221A62E36F1343E367E26F002AC9
:101980002FD0800606D5880604D5216E002901D007
:1019900020468847E06F21688968490601D400071E
:1019A00024D5204601F048F820688168490619D5F9
:1019B0008168402291438160E06E002812D0204966
:1019C0008163E06EFEF7F0FE00280AD0E06E816BC6
:1019D00006E0850610D58D060ED5216E1CE020464A
:1019E0008847F8BD2046FFF78DFFF8BD2046FFF77A
:1019F00089FF0020E067F8BDC50208D55B0206D567
:101A00000120000510622046FFF73EFFF8BD0306E7
:101A100005D50B0603D5616E0029E0D1F8BD40065F
:101A2000FCD54806FAD51368204640218B43136045
:101A3000202161670021616600F07DF9F8BD00009A
:101A40009529000810B5040003D0606F002802D06B
:101A500007E0012010BD002170200155204600F054
:101A600027F8242060672068016849084900016060
:101A7000204600F0F9FF0128ECD0606A002802D06F
:101A8000204600F0F1FE206841680922D20291430D
:101A90004160206881682A22914381602068016842
:101AA000012211430160204600F044FF10BD0000F8
:101AB000F0B587B0074614216846FEF768FB364C40
:101AC0003B68364A012603210425A34223D1536BE8
:101AD0002C0323435363D36A3343D362D26A02276E
:101AE00032400592621100920C460197002202AB2F
:101AF00034C3052069460007FEF7F8FF280200906E
:101B00000520694601970296049503940007FEF7A5
:101B1000EDFF07B0F0BD224CA342FAD1936B012434
:101B2000640423439363D36A3343D362D26A009538
:101B3000D207D20F2C4605920321022200250391E1
:101B4000052002950494019269460007FEF7CEFF36
:101B500008200090022001900320039005200296A7
:101B6000694604940007FEF7C1FF0E480E4E31C6C9
:101B70003560B5608020F56070602020756130614F
:101B800009480C3EFEF78CFE002801D0FEF752FDFE
:101B9000FE66B762BDE70000003801400010024059
:101BA00000440040580002403C030020F8B50446C1
:101BB000806F20284DD100290BD0002A09D00123A5
:101BC000A0681B03984206D12069002803D1C807EA
:101BD00001D00120F8BD25466035287C012838D089
:101BE000012028745820616502530026E6672220F0
:101BF000A067E06E002819D01749C162E16E17484E
:101C00000863E16E16484863E06E13468663676DAD
:101C100021683A462431E06EFEF78AFE002805D09E
:101C20001020E0672E7420206067D2E72E742068B1
:101C30000168FF220132114301602068816801229E
:101C40001143816020688168402211438160002037
:101C5000F8BD0220F8BD0000F12900082F2A000875
:101C6000A929000870477047FFB50446406F83B04C
:101C700017460D4620285CD1002D0AD0002F08D031
:101C8000A168C001814207D12069002804D1E8077A
:101C900002D0012007B0F0BD204660300290007CE9
:101CA000012846D00298012101740020E06721201C
:101CB0006067FEF7E7FF264640360190378277825D
:101CC0000120A1680003814202D12069002802D0CE
:101CD0002F46002511E000270FE00022802120463A
:101CE00000F0D6FF002815D1002F15D021683878D4
:101CF00088627F1C708A401E7082708A019B002857
:101D000006980090E9D100224021204600F0C0FF53
:101D1000002808D00320BDE728882168C005C00D31
:101D20008862AD1CE6E720206067029900200874F5
:101D3000B0E70220AEE77047FEE7000070B5294D1E
:101D40002949286840182949884237D2287900094A
:101D500000012871902831D80107254C090F0DD1B9
:101D60000011030001F00BF80A3A38363432302EF5
:101D70002C08060A1F4800E01F4820606879000907
:101D80000001014660396871612917D201090220FA
:101D9000491E8840FEF7D0FA2168FEF717FA606006
:101DA000A8790E210840A871801E072806D20720B6
:101DB00028560F2802DCE87A7F2811D9002070BD50
:101DC0000E48DAE70E48D8E70E48D6E70E48D4E7C3
:101DD0000E48D2E70E48D0E70E48CEE70E48CCE7D3
:101DE000012070BD8000002080B85EE681CE341DE9
:101DF000780000200000FA4300007A430000FA4215
:101E000000007A42D7A326420000FA41D7A3A64198
:101E100085EB79415C8F264185EBF94008B5044894
:101E2000016B012211430163006B1040009008BD5B
:101E300000100240F0B587B014216846FEF7A7F9FC
:101E40002348C26A80210A43C262C26A0A400592DC
:101E5000C16A01252943C162C16A29400591C16A4D
:101E600002263143C162C06A1A4F304005900520F6
:101E70002A4639460007FEF7FEFE0122164917489A
:101E8000FEF7F9FE03200024009005200194694626
:101E900002940007FEF72AFE052002946946000717
:101EA000009701950394FEF721FE0B4800900294E1
:101EB0006946019503940948FEF718FE01946946A6
:101EC000064800960294FEF711FE07B0F0BD000030
:101ED00000100240101800001970000000040050AB
:101EE00010B5084806490160042141600649C160F7
:101EF0008160FEF7CDFE002801D0FEF79BFB10BDF0
:101F000000300040D40100207102000010B50F48DD
:101F10000D490160FF210531416000218160C160F0
:101F2000012201615202826141610162202241620B
:101F3000C26181620721C162FFF72AFB002801D03C
:101F4000FEF778FB10BD000000300140E4010020E6
:101F500010B50C480A490160E121490241600021A5
:101F60008160C16001618161C1610C2201624261D5
:101F70004162FFF767FD002801D0FEF75BFB10BD53
:101F8000003801403C02002010B50C480A490160AD
:101F9000E1214902416000218160C16001618161EC
:101FA000C1610C22016242614162FFF74BFD0028D2
:101FB00001D0FEF73FFB10BD00440040BC020020F2
:101FC00010B5FFF7CBF810BD8307FF22DB0E9A4058
:101FD0008907090E994000280BDA0007000F08381E
:101FE000830808489B001818C36993430B43C361D7
:101FF0007047830804489B001B18186890430843E7
:102000001860704700ED00E000E400E0704738B56C
:1020100004464068FF2305332025984204D10092EE
:102020000B460022802107E05120005D05280DD1DC
:1020300000920B4600220121204600F009F80028FA
:1020400004D0606D28436065032038BD002038BD92
:10205000F8B51D4617460E46044609E0681C07D031
:10206000FEF710FE0699401AA8420BD2002D09D0A7
:1020700020688168304688432ED00020B842EDD1D8
:102080000020F8BD20684168E0229143416060680B
:10209000C11FFD390CD10121A068C903884202D0BB
:1020A0004911884204D120680168402291430160AF
:1020B0000120A16A4003814207D121680A68824356
:1020C0000A6021680A6802430A6001204034607493
:1020D000002020740320F8BD0120CFE730B5002395
:1020E00004E010C89D005B1C4C519BB29342F8D396
:1020F00030BD0000F7B582B0002001901F2102988A
:10210000C9064418012000041546844204D33BA0AC
:1021100000F0FAFD05B0F0BDFEF7BAFC21463AA08A
:10212000029E00F0F1FDE70939463EA000F0ECFD0B
:102130007006C60E314640A000F0E6FD2020841B4C
:10214000214644A000F0E0FDA54200D82C46012025
:10215000F901C0060818202246490090FFF7BEFF8B
:10216000002007E031188A0042498958491C03D1F0
:10217000401C80B2A042F5D3A04238D2FF203E4995
:10218000033088613B480021803001600099416044
:102190000121816001A9FEF70DFC002805D0FEF7A2
:1021A00045FCC1B235A000F0AFFD002008E0039966
:1021B00082008958821993002E4A401CD15080B267
:1021C000A042F4D320222B49009800F05DF8A542EC
:1021D00011D00398A1000818039002980026001956
:1021E0002D1B7F1C0290202DB0D92024AFE7224662
:1021F00003990298E9E7FEF71FFC8BE7B7C7B7A87A
:10220000B5D8D6B70D0A0000CAB5BCCAC6ABD2C68F
:10221000B5D8D6B76F6666616464723D25640D0AF1
:1022200000000000C9C8C7F8B5D8D6B77365637099
:102230006F733D25640D0A00D4DAC9C8C7F8C4DA43
:10224000B5C4C6ABD2C67365636F66663D25640DC3
:102250000A000000C9C8C7F8CAA3D3E0BFD5BCE4D0
:10226000B4F3D0A173656372656D61696E3D2564D9
:102270000D0A00004C0400200020024073617465C8
:10228000313D25640A000000F8B516460F460546A4
:10229000002408E0A0003A5829460220FEF7DAFBA5
:1022A000641CA4B22D1DB442F4D3F8BD704710B520
:1022B000002804D0002000F017F9012003E00120DD
:1022C00000F012F9002000F0CFF910BD10B5022186
:1022D0000148FEF7C7FC10BD00040050FEB52348BE
:1022E00023490068234A4118914201D30120FEBDD1
:1022F000FEF72EF80022204BFDF7A6FFFEF736F87A
:1023000004460020694608700871087200F07CF9E4
:10231000260CF1B2062000F0DBF9250AE9B207200D
:1023200000F0D6F9E1B2082000F0D2F969460620A3
:1023300000F0DBF801A9072000F0D7F802A9082077
:1023400000F0D3F869460978F0B2884209D16946AD
:102350000979E8B2884204D16946097AE0B2884234
:1023600001D00220FEBD0020FEBD00008000002044
:1023700080B85EE681CE341D80844E407CB5FFF788
:10238000DDFC00281ED000F0E5F80021012000F05F
:102390009FF98021012000F09BF98121012000F0AC
:1023A00097F90025684605709121242000F090F9E6
:1023B0006946242000F099F868460078912803D0F7
:1023C00002207CBD01207CBD4021412000F080F92D
:1023D00023210C2000F07CF9FFF780FF00F056F875
:1023E00006210A2000F074F93B210B2000F070F95F
:1023F000214C2220E17A00F06BF92179A079014388
:10240000A07A012801D0012000E0002001431D2016
:1024100000F05EF9607A6179012808D0002001435C
:102420001E2000F055F96079602802D013E00420E6
:10243000F5E76846057101A9312000F056F86846B5
:102440000079C108C9003120491D00F041F90C2173
:10245000372000F03DF90848832108384068C90555
:10246000884201DD082100E00021042001432620EC
:1024700000F02EF900207CBD80000020024610B53F
:10248000052010210007FEF7F6FB10BD38B5154CEE
:10249000072020560F2801DD012038BD00F0B4F8D8
:1024A000E079F0252843C1B2092000F011F900219C
:1024B000684601706946092000F017F80721615647
:1024C000684600782943814201D0022038BD207A35
:1024D000012805D084214D2000F0FAF8002038BDF5
:1024E0008721F8E780000020704710B5012200F036
:1024F00001F810BD70B5044615460E460020FFF7E2
:10250000BDFF6006400E00F015F8002405E0002035
:1025100000F010F83055641CE4B2AC42F7D301204F
:10252000FFF7ACFF70BD0A4610B501460020FFF76B
:10253000E1FF10BD01B582B07D20C00000900123F5
:1025400001AA02A90248FFF78FF8684600790EBD7C
:10255000E401002010B5094C002201212046FEF7BD
:102560008AFBC820FEF718FA012211462046FEF722
:1025700082FBC820FEF710FA10BD000000040050D6
:102580007CB5054601A91920FFF7AFFF6846017920
:102590001B4C080607D5C843401C0006800E694640
:1025A0000871404202E088086946087160811A207B
:1025B000FFF79BFF0A20205E002803DA69460978AE
:1025C000081A05E0684600780F210001FDF792FD2A
:1025D000A43820810B4CA07A012808D121460B3168
:1025E0001320FFF782FF00210D2000F071F8E17A3F
:1025F0002846FFF798FFFF21122000F069F87CBD04
:102600009C0300208000002010B58121012000F0F3
:102610005FF810BD10B58121012000F059F80021AC
:10262000202000F055F80A21212000F051F80D4833
:10263000C17A222000F04CF800210D2000F048F86B
:10264000FF21122000F044F8BF21112000F040F8D3
:102650000021402000F03CF88521012000F038F8EE
:1026600010BD0000800000207047000070B50446D7
:102670008121012000F02CF80021202000F028F812
:102680000A21212000F024F8104D2220E97A00F0E0
:102690001FF80120FFF70BFE80210D2000F018F835
:1026A000EA7A2146002000F019F8FF21122000F0FC
:1026B0000FF8F721112000F00BF84021084600F038
:1026C00007F88321012000F003F870BD800000208E
:1026D00013B5012201A900F001F81CBD70B5044634
:1026E00015460E460020FFF7C9FE2046802108430C
:1026F000FFF720FF002404E0305DFFF71BFF641CA0
:10270000E4B2AC42F8D30120FFF7B8FE70BD000080
:1027100070B5184CFF212068F531401C0025206061
:10272000884205D90121090313482560FEF79FFA65
:10273000124A13481168002907D10168114B491C3E
:102740000160994202D90121116005600E490878A3
:10275000012806D06560FEF7D5FA0C48FEF7CAFAE4
:1027600070BD60680A4A401C60609042F3D9022044
:102770000870F0E768000020000400500C00002002
:10278000480000203075000002000020D401002025
:102790001027000030B599B034216846FDF7F7FCEA
:1027A00014210DA8FDF7F3FC1C2112A8FDF7EFFC86
:1027B000174801680322D2029143C21489180160AC
:1027C0000920009001210591500101900A900320F9
:1027D000022180040B9048050C9009916846FEF791
:1027E000C9FC00240F2003250D900F9410940121A3
:1027F0000E9511940DA8FEF795FB149412A812954E
:102800001594FEF7DBFAFEF743FC19B030BD00006B
:102810000070004010480168821511430160C168D2
:102820000E4A1140C16001680D4A11400160816883
:1028300049084900816001680122920491430160C6
:10284000C168FD2212049143C16000210161054964
:10285000C003886070470000001002400C40FF88F1
:10286000F6FFF6FE00ED00E010B5818CC90707D039
:1028700001684A6801235B049A43836A1A434A60E9
:10288000818C890707D501684A6801231B049A4394
:10289000C36A1A434A60818C490707D501684A68B0
:1028A00001239B049A43036B1A434A60818C0907F6
:1028B00007D501684A680123DB039A43436B1A4337
:1028C0004A60818CC90607D50268916801231B0301
:1028D0009943836B19439160818C890607D5016800
:1028E0008A6801235B039A43C36B1A438A60818C15
:1028F000490612D503685A6801210905046C8A4308
:1029000022435A60026C8A4207D10268516803234D
:102910005B059943436C19435160818C090607D5C7
:1029200001684A680123DB04806C9A4302434A60D1
:1029300010BD0000F8B500260446C667FEF7A2F9F0
:10294000054620680068124F000709D501212B4673
:10295000002249052046009700F09AF900280DD181
:102960002068006840070BD501212B46002289050D
:102970002046009700F08CF9002801D00320F8BD14
:1029800020206067A067603426740020F8BD000036
:10299000FFFFFF0110B5806A0022014640314A83E3
:1029A0004A82FEF7AFFF10BD70B5846A606FA56FF5
:1029B0002168896800260906002906DA212804D141
:1029C00052200653204600F047F8206880684006F1
:1029D00006D5222D04D15A200653204600F02CF8AB
:1029E000E06F10210843E0672046FEF78BFF70BDC3
:1029F00010B501460968806A0968890614D4002266
:102A00005A210A5201680A68FF2301339A430A6077
:102A100001688A68520852008A6001688A68402307
:102A20009A438A6020218167FFF71CF910BD10B519
:102A3000806AFFF718F910BD01680A68FF23213387
:102A40009A430A6001688A68520852008A6020210D
:102A5000816700210166704701680A68C0239A43B4
:102A60000A60202141677047F8B504462669A268CC
:102A7000E76932436669102000253E4323683243EC
:102A800078491E68784F3E4016431E6023685A6896
:102A900003263603B243E66832435A602368A269CC
:102AA0008B4201D0266A32439E680B273F02BE4309
:102AB00016439E606D4E23686D4AB3420CD1D268B6
:102AC0009207920F06D0012A38D0022A34D0032A66
:102AD00020D11EE001201DE0664EB3420AD1D2682B
:102AE0000C26324026D0042A28D0082A24D00C2ACA
:102AF00010D10EE08B420DD1D6680322920216400F
:102B000018D001229202B61A18D0B61A14D09642E2
:102B100000D10820564A0126403A574FF6038B420F
:102B200036D100280CD002280DD0042812D0082855
:102B30001FD11CE00020EDE70220EBE70420E9E7CD
:102B4000FEF7B0FA08E01068C00601D5384605E087
:102B50004A4803E0FEF7C6FA002873D062685100C5
:102B60005118814205D81103814202D303E0304657
:102B7000F4E7012566E0010E060250080023301834
:102B80005941FDF7CDFA03210902411A3C4A55E0AB
:102B9000E169B14232D1030000F0F1F809070A0DF2
:102BA00006250606062B0600E3E7FEF77BFA1CE087
:102BB000FEF788FA19E010686168C00602D5480877
:102BC000304A01E0304A48088018FDF793FA80B295
:102BD00001462E4A10399142CBD8511C01400007C2
:102BE000400F08432CE0FEF77DFA616840004A0878
:102BF000EAE76168012248081204E5E7030000F0F3
:102C0000BEF809070A0D06260606062C0600B0E7E0
:102C1000FEF748FA1DE0FEF755FA1AE01068616801
:102C2000C00602D54808C01902E014484A08101826
:102C3000FDF760FA80B20146144A1039914298D8E3
:102C40002168C8600020206660662846F8BDFEF74F
:102C500049FA61684A088018EAE7616848088019FB
:102C6000E6E7000000480040F369FFEF003801404C
:102C7000401002400044004000093D000024F400E0
:102C8000FFFC0F0000127A000048E801EFFF00008F
:102C9000FFB581B017460E4604460A9D09E0681C40
:102CA00007D0FDF7EFFF0499401AA8420CD8002D79
:102CB0000AD02068C1693046884318D00020B84245
:102CC000EDD0002005B0F0BD20680168FF22A132E0
:102CD0009143016020688168490849008160202093
:102CE0006067A0670020603420740320EAE70120B9
:102CF000E5E7000010B5FDF77DFC0248FEF704FE95
:102D000010BD0000BC0200200FB410B503A9044B95
:102D1000044A029800F050F810BC08BC04B01847F0
:102D2000D1380008080100200FB410B504A9074BE2
:102D300002AA039800F040F8044602A9002000F01F
:102D400075FA204610BC08BC04B018472D320008A4
:102D50002021020C01D010211046020A01D0104699
:102D60000839020901D01046091F820801D0104617
:102D7000891E420801D0881E7047081A704730B477
:102D80007446641E2578641CAB4200D21D46635D08
:102D90005B00E31830BC184702E008C8121F08C1E6
:102DA000002AFAD170477047002001E001C1121FCC
:102DB000002AFBD170470000FFB591B00F460546D1
:102DC000002606E025280AD0149A139990476D1C16
:102DD000761C28780028F5D1304615B0F0BD0024C7
:102DE00000940121F34A029400E004436D1C2B7807
:102DF0000846203B98401042F7D128782A280ED068
:102E00000222287801463039092915D800990A2369
:102E100059433039401814436D1C0090F1E701CF3D
:102E20000090002805DA0120400304430098404246
:102E30000090022004436D1C28782E2815D1042010
:102E4000044368786D1C2A280AD101CF6D1C0290BA
:102E50000BE002990A225143303940186D1C029050
:102E60002878014630390929F3D928786C2810D000
:102E700006DC4C281AD068280ED06A2817D104E046
:102E8000742813D07A2812D110E0012040050443A1
:102E90000CE00121090501E0032109050C436978D3
:102EA000814203D10120000524186D1C6D1C287877
:102EB0006E281ED00CDC632831D004DC00288BD0B7
:102EC000582811D1B2E064287BD069280CD178E071
:102ED00073282DD004DC6F2870D0702804D1A7E0AF
:102EE00075286CD078286BD0149A13999047761C6B
:102EF00062E06002400F022807D003280AD00428AD
:102F000038680AD006603F1D56E03868F117066041
:102F10004160F8E738680680F5E70670F3E738782F
:102F2000694608740020487404A80390012003E057
:102F3000386803900020C0433F1D61070FD5002172
:102F400001E00199491C029A0191914213DA8142F0
:102F5000F7DB019A0399895C0029F2D10BE000218B
:102F600001E00199491C01918142FADB019A039920
:102F7000895C0029F5D101990098139A401A0090B4
:102F80002146149B00F03CF901998019461807E08E
:102F9000039803990078491C0391149A1399904758
:102FA0000198401E0190401CF2D12146149B139AB7
:102FB000009800F015F986196D1C0AE741E033E02E
:102FC00034E00A200021049005916002410F02299B
:102FD00005D001CFC2179446032905D007E0FF1D95
:102FE000FF08FF0003CF06E000B2C2179446042991
:102FF00002D140B2C1178C4600226146944506DAE0
:103000000A460021404291418C462D2102E02105D3
:1030100004D52B216A461176012103E0E10701D096
:103020002021F7E7019155E00A200BE0102009E08C
:1030300010200490002104200443082005910290F0
:1030400003E008200021059104906002410F02294D
:1030500005D001CF00229446032906D006E0FF1DCB
:10306000FF08FF0003CF8C4603E080B2042900D1A3
:10307000C0B20021019121072CD529780391702934
:1030800006D0049A1021059B4A401A4305D00EE051
:1030900040216A461176012108E06146014306D0CD
:1030A00030216A4611760399517602210191049AE2
:1030B0000821059B4A401A430CD16146014301D1C6
:1030C000610707D530216A461176012101910299E5
:1030D000491E02912978582904D037A103910FA9DC
:1030E0000F910DE039A1F9E76146059B049AFDF7C0
:1030F00017F8039B8C469B5C0F9A521E0F9213701D
:1031000061460143F0D10F9807A9081A20300390B7
:10311000600704D5012000048443029801E00120E7
:1031200002900399884201DD401A00E00020411816
:103130000290019809180098401A0090E00306D404
:103140002146149B139A009800F05AF88619002023
:10315000049008E006A9085C149A13999047049813
:10316000401C761C049001998842F3DBE0030CD5E7
:103170002146149B139A009800F042F8861904E047
:10318000149A302013999047761C0299481E029099
:103190000029F5DC08E00F980F990078491C0F9181
:1031A000149A13999047761C0399481E039000299E
:1031B000F1DCFAE609280100303132333435363794
:1031C0003839616263646566000000003031323373
:1031D0003435363738394142434445460000000013
:1031E000F8B5044600251E461746880404D405E0B9
:1031F00039462020B0476D1C641EF9D52846F8BD1D
:10320000FFB50446002581B01E46C80301D530270E
:1032100000E02027880404D505E038460399B0472C
:103220006D1C641EF9D5284605B0F0BD0A68531C14
:103230000B6010707047000070B5154804250168D8
:1032400014480160702101719021417185710F2135
:10325000C17101210172417281724021C172FFF777
:103260008DF8044601460CA0FFF74EFD002C08D057
:10327000FF24F5340BA0FFF747FD2046FDF78CFB3C
:10328000F8E7FFF7C7F902481038057070BD000075
:1032900010000020800000206173746174653D257A
:1032A000640D0A006C6F726120696E69742066613A
:1032B000696C0D0A00000000F7B582B00021234CB4
:1032C00000912178224F002902D0012920D110E05D
:1032D00000F0F4FA322239461E48FEF767FC01205E
:1032E0002070FDF7CFFC014660601BA0FFF70CFDCE
:1032F0000EE0174E0025083E307801280BD0FDF770
:10330000C1FCA0606168411A0498814200D925700F
:10331000009805B0F0BD394614A0FFF7F5FC38461B
:103320000399FCF73FFF002808D035707580012015
:103330000090257032213846FCF729FF35707580E2
:1033400032213846FCF723FFE2E700008C00002022
:10335000B4030020BC020020776169745F74696D5A
:103360005F7374613D25640D0A00000061636B3A70
:1033700025730D0A0000000010B501220849094814
:10338000FEF7ACFE064C08A0241F6168FFF7BCFCEA
:103390006068032801D0022010BD012010BD00008C
:1033A0000400002000F40008666163746F72795FA6
:1033B000706172616D657465725F666C61673D25F1
:1033C000640000007CB501222E492F48FEF786FEDE
:1033D0002C4D2EA02968FFF797FC2B482946022286
:1033E00010311038FEF77AFE2946022210312C489F
:1033F00000F0D6FB2A4E0024315D2AA0FFF784FCA2
:10340000641CE4B2082CF7D32868032838D11D497E
:103410001D480122091DE838FEF760FE19491A48C7
:1034200001220831C838FEF759FE16491648012214
:103430000C31A838FEF752FE1248001DC278817880
:10344000009101924378027818A11E48FFF76CFCA6
:103450000C480830C2788178009101924378027854
:1034600019A12048FFF760FC06480C30C27881782B
:1034700000910192437802781BA12148FFF754FC88
:103480007CBD00004C00002010F5000863687563E7
:1034900068616E675F666C61673D25640D0A0000B8
:1034A00028000020253032780000000061742B4C89
:1034B000414E49703D25642E25642E25642E2564D9
:1034C0000D0A00009800002061742B4E446F6D615E
:1034D000696E303D25642E25642E25642E25640DED
:1034E0000A000000C000002061742B4E52506F7221
:1034F00074303D25642564256425640D0A000000B0
:10350000E800002010B5002304E0CC5C641ED45415
:103510005B1CDBB28342F8DB10BD10B5002304E076
:10352000CC5C641CD4545B1CDBB28342F8DB10BD62
:1035300070B50E4C012210212046FDF79CFB7D2525
:10354000ED002846FDF728FA002208212046FDF765
:1035500092FB6810FDF720FA012208212046FDF7B2
:103560008AFB2846FDF718FA70BD000000040050E1
:10357000F8B55F4C7D27607800255E4EFF000300A4
:10358000FFF7FDFB0E08101C4D5A677079838EB350
:10359000283441B3324658A15BA0FFF78DFE0128C5
:1035A00071D0A2E05CA0FFF7AFFB32465DA161A045
:1035B000FFF782FE0128F4D1022064E062A0FFF749
:1035C000A3FB324665A168A0FFF776FE0128E8D18B
:1035D0000B2058E068A0FFF797FB32466DA170A062
:1035E000FFF76AFE0128DCD10C204CE070A0FFF749
:1035F0008BFB3F48324673A10C30FFF75DFE01287C
:1036000073D10D203FE072A0FFF77EFB324676A11A
:1036100079A0FFF751FE012867D1032033E07EA097
:10362000FFF772FB324832467DA13430FFF744FE8B
:1036300001285AD1042026E07DA0FFF765FB2C4825
:1036400032467FA15C30FFF737FE01284DD10520BF
:1036500019E032467DA180A0FFF72EFE012844D15B
:10366000062010E0324681A183A0FFF725FE012845
:103670003BD1072007E0324682A185A0FFF71CFE60
:10368000012832D1082060702FE03A4684A187A03B
:10369000FFF712FE092060703846FDF77DF924E03F
:1036A0003846FDF779F93846FDF776F93846FDF7E3
:1036B00073F93846FDF770F93846FDF76DF938466D
:1036C000FDF76AF93846FDF767F93846FDF764F902
:1036D0003846FDF761F93846FDF75EF93846FDF7E3
:1036E0005BF93846FDF758F901252846F8BD00007A
:1036F0008C0000208813000061742B524E65746D9D
:103700006F64653D3000000061742B4E65746D6F11
:1037100064653D300D0A0000C9E8D6C3C4A3CABD24
:103720000D0A000061742B524E50726F547970650F
:103730003000000061742B4E50726F547970653008
:103740003D320D0A0000000044484350B7FECEF160
:10375000C6F7BFAAC6F40D0A0000000061742B5220
:10376000446863706400000061742B446863706493
:103770003D300D0A00000000C9E8D6C357414EB5E0
:10378000C44950B5D8D6B7BBF1C8A1B7BDCABD0DA5
:103790000A00000061742B524468637063000000EB
:1037A00061742B44686370633D310D0A00000000B2
:1037B000C9E8D6C3B1BEBBFA4950B5D8D6B70D0AD1
:1037C0000000000061742B524C414E497000000013
:1037D000C9E8D6C3B1BEBBFACDF8B9D8B5D8D6B70B
:1037E000B5D8D6B70D0A000061742B524C414E4932
:1037F000704D61736B00000061742B4C414E497039
:103800004D61736B3D3235352E3235352E323535BF
:103810002E300D0A000000003132330D0A00000086
:1038200061742B524E446F6D61696E300000000070
:10383000C1B4BDD34950B5D8D6B70D0A00000000B9
:1038400061742B524E52506F7274300061742B525F
:103850004E4C506F7274300061742B4E4C506F722E
:1038600074303D383838380D0A00000061742B522E
:10387000536176653D31000061742B536176653D7F
:10388000310D0A0061742B524170706C793D31002A
:1038900061742B4170706C793D310D0A000000009D
:1038A00061742B5265626F6F7400000061742B525B
:1038B00065626F6F743D310D0A00000010B504465B
:1038C00002E000F055F9641C20780028F9D110BD01
:1038D00013B5044B012269460348FEF7C5F9009869
:1038E0001CBD0000FFFF00003C020020F8B5514D58
:1038F0002878012822D002281DD004281AD1FCF7EC
:1039000027FE012816D169461220FEF7EEFDFF21A1
:103910001220FEF7DDFE68460078010703D502207D
:10392000287045A004E0400604D50120287046A078
:10393000FFF7EAF9F8BDFEF767FE76E04549132088
:10394000FEF7D3FD4448FEF71BFEFEF75DFE414C3B
:1039500000260B3C404F06E0BA5D31463FA0FFF722
:10396000D3F9761CB6B2E07AB042F5D83A4AC0B282
:103970001146FFF7C7FD3EA0FFF7C6F9002606E097
:10398000BA5D314635A0FFF7BFF9761CB6B2E17AD1
:10399000B142F5D83E4A0020264B161828331B5C4E
:1039A000401CC0B233720828F6D3002005E03B1853
:1039B00016189B78401C3374C0B28142F7D8344E3D
:1039C000387808365A2828D17878A52825D038792B
:1039D000012822D1787907281BD007DC0300FFF7E4
:1039E000CEF9071C1214181818181C00132810D030
:1039F00004DC08280DD012280FD10AE0202808D0B6
:103A000021280AD105E023A000E02AA0FFF77CF9D5
:103A1000E17A3046891D00F0B7F832210E48FCF7F4
:103A2000B6FB32213046FCF7B2FBFEF7F3FD042073
:103A30002870F8BD0000002073656E642073756304
:103A40006573730D0A0000007278207375636573E7
:103A5000730D0A008B0000203E0100205258627551
:103A6000666665725B25645D3D253032780D0A001F
:103A7000CDF8B9D8CAD5B5BDC0B4D7D4D3EBB1A8A9
:103A8000BEAFC6F7B5C4CAFDBEDD0D0A000000001A
:103A9000AC030020C9E8B1B8C8EBCDF8C7EBC7F359
:103AA000CAD5B5BD2CD7AAB7A2B5BD5765620D0A58
:103AB00000000000C9E8B1B8C8EBCDF8D7B4CCAC71
:103AC000CAD5B5BD2CD7AAB7A2B5BD5765620D0A38
:103AD0000000000070B50C460546FEF795FD07484E
:103AE000074AC47229462046FFF717FD0448FEF72F
:103AF000BDFD04490420087070BD00008000002056
:103B00000C01002000000020FDF704F9FEF742FE42
:103B1000FEF790F9FEF782F9FEF7F8F9FEF718FACA
:103B2000FEF732FAFEF7DCF9002211461C20FDF701
:103B300033F91C20FDF726F9002211460B20FDF772
:103B40002BF90B20FDF71EF9FFF73CFCFFF774FB88
:103B5000FCF72AFDFCF71EFDFFF7EAFCFFF708FD66
:103B60000128FBD1FFF7C2FE00F074F8FAE700006D
:103B700001B5034B012269460248FEF775F808BDFE
:103B8000FFFF0000BC0200200A4610B50146024BB0
:103B90000248FEF769F810BDFFFF0000BC020020DC
:103BA00070B500230CE09C000D5D055565182418C8
:103BB0006E786670AE78A670ED785B1CE570DBB24F
:103BC0009342F0D370BD000010B500680860014654
:103BD00001A0FFF799F810BD2530387800000000EB
:103BE00030B5002304E09C0005595B1C0D51DBB28D
:103BF0009342F8D330BD0000F0B59C460024144930
:103C0000059F069E13462546725D0A55641C6D1C71
:103C1000ADB2A4B2082DF7D302780A55641CA2B243
:103C200040788854521C90B202220A54401C80B240
:103C30000B54401C82B2002006E063461B5C8B5490
:103C4000521C401C92B280B2B842F6D3D0B2F0BD42
:103C500070010020F0B5FF4EFF48F278014685B0B4
:103C6000354608313A300327012428350391029064
:103C7000042A7DD006DC002A0CD0012A79D0032A40
:103C800010D193E2F4480F2A0178807A29D0102AC3
:103C9000F6D128E1FFF770FB022804D0FFF76CFB98
:103CA000012809D018E30E21ECA0FFF76DFFF47096
:103CB000EAA0FFF729F8F5E70122EC49EC48FEF706
:103CC0000DFAEA48E34C01780834217040786070BE
:103CD000E8A0FFF719F86178E9A0FFF715F8F77089
:103CE000E0E7EA4A1268032A75D00129DAD10228EE
:103CF00070D1D948C07A032806D0042816D00528E8
:103D000026D00628F4D167E0E1A0FEF7FDFF1E21D2
:103D1000E348FCF73CFAE249CF4A002013181B7B2A
:103D20000B54401CC0B20428F8D3E7E2DDA0FEF734
:103D3000EBFF1E21E048FCF72AFADF4AC6490020C3
:103D40000B181B7B1354401CC0B20428F8D301E3AA
:103D5000DAA0FEF7D9FF1E21DD48FCF718FADC4A8D
:103D6000BD4900200B181B7B1354401CC0B201E05E
:103D7000F7E37CE00428F5D3D649D548FFF724FFC4
:103D8000BB480122D3492038FEF7B4F9BF480122CD
:103D900001460760B6488830FEF7ACF9AD4B747049
:103DA0005B1C05220221D81D01950094FFF724FF1A
:103DB000A84B05225B1C0221D81D01950094FFF73A
:103DC0001BFF0146C448FFF7DFFE6420FCF7E4FD5B
:103DD000FCF7E6FF6CE248E0C0A0FEF795FF9D48C7
:103DE0001E212830FCF7D3F900279B483946C0191B
:103DF000027BEA55BEA0FEF787FF7F1CFFB2082FAB
:103E0000F3D394480222C0492830FFF7E9FE9848CE
:103E10000222BD497830FEF76DF98E480222BA4978
:103E20002830FFF7BDFE0027E95DB8A0FEF76CFF64
:103E30007F1CFFB2082FF7D3864B74705B1C0622E1
:103E40000221D81D01950094FFF7D6FE814B019504
:103E50005B1C062200947F4802210830FFF7CCFE4D
:103E600001469D48FFF790FED7E3002039E0794BEB
:103E700074705B1C01220221D81D01950094FFF78C
:103E8000BBFE744B01225B1C0221D81D01950094DE
:103E9000FFF7B2FE01469EA0FEF736FF002706E0C0
:103EA0008D48C15D9EA0FEF72FFF7F1CFFB2694BBE
:103EB00001225B1C0221D81D01950094FFF79CFE96
:103EC000B842EDD8634B01225B1C0221D81D01953D
:103ED0000094FFF791FE01467F48FFF755FEB4704E
:103EE0001020F070A4E3B278022A00D1F470012906
:103EF000F8D15949097A082947D15749497A0829F7
:103F000043D1082841D16148012201460460584844
:103F10008830FEF7EFF86420FCF73EFD544801229C
:103F20005A498830FEF7DAF86420FCF735FD0121A4
:103F30005648FFF729FE0020706046494C48012290
:103F4000091D8838FEF7D6F86420FCF725FD4149A5
:103F500047480122091D8838FEF7C0F83D48012175
:103F6000001DFFF711FE3B4B05225B1C0221D81DF3
:103F700001950094FFF740FE03210398FFF704FE2C
:103F80006420FCF709FDFCF70BFF0021324804E038
:103F90004218137C491C1372C9B24288083A8A42FB
:103FA000F6DC2D48807A022804D032210398FCF7F1
:103FB000EEF832E32848C07A012802D00228F8D16E
:103FC000E2E0244840680328F3D05BA0FEF79CFEA3
:103FD0002148204E017B08363170407B70705AA01A
:103FE000FEF792FE71785CA0FEF78EFE194C012060
:103FF0006070631C0222009011460195D81DFFF7E6
:10400000FBFD014658A0FEF77FFE002606E0324881
:10401000815D43A0FEF778FE761CF6B20D4B0120C1
:104020005B1C0222009011460195D81DFFF7E4FDAC
:10403000B042ECD807490E480122091D8838676054
:10404000FEF758F8034809490830FFF7BDFD012283
:10405000064991E000000020AC030020C7EBC7F345
:10406000B3F6B3A7C9E8D6C30D0A00006400002068
:1040700088F400086465765F6E756D303D257800C4
:104080006465765F6E756D313D2578004C000020CB
:10409000C9E8D6C34950B5D8D6B70D0A000000000C
:1040A00098000020C9E8D6C3D4B6B3CC4950B5D8DF
:1040B000D6B70D0A00000000C0000020C9E8D6C332
:1040C000D4B6B3CC4950B6CBBFDA0D0A000000001D
:1040D000E80000205800002070010020C9E8D6C385
:1040E00050726F647563746B65790D0A000000008F
:1040F00070726F647563745F6B65795B25645D3D99
:1041000025640D0A000000005C000020256300000B
:10411000776966696C656E313D25640D0A000000A3
:1041200009207769666954586275666665725B69CD
:104130005D3D253032780000676574206465762027
:1041400069640D0A00000000206465765F6E756D7D
:104150005B305D3D25640000206465765F6E756DA3
:104160005B315D3D25640000776966696C656E3D75
:1041700025640D0A00000000FA48FDF7BBFF04208B
:10418000E0700020A07048E270680328FBD1F64878
:10419000F64902780B7A9A42F5D14078497A8842FA
:1041A000F1D1F770F2A0FEF7AFFD36E2F06801281A
:1041B0001BD1F3A0FEF7A8FDEB4B7470DB1F0822A8
:1041C0000221D81D01950094FFF716FDE64B082249
:1041D000DB1F0221D81D01950094FFF70DFD01465C
:1041E000EA48FFF7D1FC0020F060E048017801299F
:1041F00072D1007A082848D1DC48417A082944D194
:10420000807A082841D1E248012201460460D5485D
:104210008830FDF76FFF6420FCF7BEFBD148012218
:10422000DB498830FDF75AFF6420FCF7B5FB01211C
:10423000D748FFF7A9FC00207060CB49C94801228C
:10424000091F8838FDF756FF6420FCF7A5FBC64917
:10425000C4480122091F8838FDF740FFC2480121E8
:10426000001FFFF791FCC04B0522DB1F0221D81D68
:1042700001950094FFF7C0FC03210398FFF784FC2D
:104280006420FCF789FBFCF78BFD0021B74804E0B4
:104290004218137C491C1372C9B24288083A8A42F8
:1042A000F6DCB248807A022803D0B04C01287DD0D9
:1042B000B3E1AE49AC480A7A03789A42F8D14A7A17
:1042C00040788242F4D10846C07A032805D00428F9
:1042D0002ED00528ECD157E0AAE1AE48FEF714FD38
:1042E0001E21AD48FBF753FFAB4AA04900200B1835
:1042F0001B7B1354401CC0B20428F8D3A749A6481E
:10430000FFF762FC97480122A4496038FDF7F2FEEE
:10431000954B7470DB1F03220221D81D0195009478
:10432000FFF76AFC904B0195DB1F0322009492E596
:1043300098481430FEF7E8FC1E219948FBF727FF48
:10434000974A8A4900200B181B7B1354401CC0B2AB
:104350000428F8D393499248FFF736FC814801229C
:1043600090494038FDF7C6FE7F4B7470DB1F042276
:104370000221D81D01950094FFF73EFC7A4B019570
:10438000DB1F0422009466E582482C30FEF7BCFC5B
:104390001E218548FBF7FBFE834A744900200B1859
:1043A0001B7B1354401CC0B2042800E001E0F6D38C
:1043B000E2E46E4DE07A5A26A5272035082877D00A
:1043C00007DC0300FEF7DBFC08760F2C49667987D3
:1043D000957613286DD06DDC09286CD010286BD031
:1043E000122867D1F2E0AE76EF76002005E02118C2
:1043F0000A7A2031401C0A77C0B261888142F6D81F
:10440000002508E060192030827E294667A0FEF76B
:104410007BFC6D1CEDB26088801CA842F2D8F6E0EF
:10442000AE76EF76002005E021180A7A2031401C94
:104430000A77C0B261888142F6D8002508E0601989
:104440002030827E294659A0FEF75EFC6D1CEDB23D
:104450006088801CA842F2D8D9E0AE76EF760020C2
:1044600005E021180A7A2031401C0A77C0B2618821
:104470008142F6D8002508E060192030827E294666
:104480004AA0FEF741FC6D1CEDB26088801CA8427A
:10449000F2D8BCE0AE76EF76002005E021180A7A6B
:1044A0002031401C0A77C0B261888142F6D8AEE064
:1044B0002DE09CE0B1E038E045E0AE76EF760020FC
:1044C00005E021180A7A2031401C0A77C0B26188C1
:1044D0008142F6D89BE0AE76EF76002005E0211809
:1044E0000A7A2031401C0A77C0B261888142F6D82E
:1044F0008DE0AE76EF76002005E021180A7A2031B3
:10450000401C0A77C0B261888142F6D87FE0AE765F
:10451000EF76002005E021180A7A2031401C0A7746
:10452000C0B261888142F6D871E0AE76EF760020A5
:1045300005E021180A7A2031401C0A77C0B2618850
:104540008142F6D863E0AE76EF76002005E02118D0
:104550000A7A2031401C0A77C0B261888142F6D8BD
:1045600055E06BE088F4000808000020AC03002050
:10457000C9E8B1B8B0F3B6A8B3C9B9A60D0A00002E
:10458000B7A2CBCDD0C4CCF80D0A0000700100203A
:104590004C000020904000089800002050000020AF
:1045A000C000002054000020E800002020455350A7
:1045B000383236362E74656D5F52585F70446174C0
:1045C000615B25645D3D25303278000026A0FEF752
:1045D0009BFBAE76EF76002005E021180A7A2031A9
:1045E000401C0A77C0B261888142F6D80FE024A04F
:1045F000FEF78AFBAE76EF76002005E021180A7AF6
:104600002031401C0A77C0B261888142F6D8A07878
:10461000801CC1B20298FFF75DFA32210298FBF7C5
:10462000B6FD32210398FBF7B2FD1B49002008704C
:1046300064211A48FBF7ABFD05B0F0BD7470184B50
:1046400002221146D81D01950094FFF7D5FA144BAC
:1046500002221146D81D01950094FFF7CDFA0146BC
:104660000E48FFF791FA3BE4CAD5B5BDBAF3CCA822
:10467000B1A8BEAFD6B8C1EED3A6B4F00D0A000003
:10468000CAD5B5BDBAF3CCA8B1A8BEAFD6B8C1EEF5
:10469000CFC2B7A20D0A0000AC03002070010020B9
:1046A00001000020000000000000000001020304DF
:1046B00006070809030406080C1018203000000043
:1046C0000001020304000000E8460008000000208A
:1046D0000C010000982D0008F44700080C01002090
:1046E000CC130000A82D00080000000F00000000FF
:1046F00000000000000000004043DB1980D60F1CC2
:1047000040FF7A1D80FB651E00A1BC33C0CA8936FC
:104710000102030405060708000000000000000075
:104720000000000000000000000000000000000089
:104730000000000000000000000000000000000079
:104740000000000000000000000000000000000069
:104750000000000000000000000000000000200039
:104760000000FA436F12833F80A1031C9080020F68
:1047700001010140000000000000000000000000F6
:1047800061742B4C414E49703D3139322E313638EF
:104790002E312E39300D0A0000000000000000000C
:1047A000000000000000000061742B4E446F6D613A
:1047B000696E303D3139322E3136382E312E31345A
:1047C000370D0A000000000000000000000000009B
:1047D00061742B4E52506F7274303D363936320D43
:1047E0000A000000000000000000000000000000BF
:0447F00000000000C5
:04000005080000C12E
:00000001FF
